:100000000C9438000C9455000C9455000C94550039
:100010000C9455000C9455000C9455000C9455000C
:100020000C9455000C9433030C9455000C94570019
:100030000C9455000C94E2000C9455000C9455005F
:100040000C9455000C9455000C9455000C945500DC
:100050000C945500FA00FC00010106010C0111018D
:1000600016011B01200125012A012F01340139014C
:1000700011241FBECFE5D4E0DEBFCDBF20E0A6E651
:10008000B0E001C01D92A63BB207E1F710E0A0E688
:10009000B0E0EAE2FAE002C005900D92A636B107A0
:1000A000D9F70E9452010C9413050C9400001F9282
:1000B0000F920FB60F9211242F933F934F935F939C
:1000C0006F937F938F939F93AF93BF93CF93EF9350
:1000D000FF9380916800809367008091690080930E
:1000E00068008CB180936900809169008E3209F0BC
:1000F0004CC0809168008C3331F0809168008E3361
:1001000021F4C0E003C0C1E001C0C2E080916700FB
:10011000833601F180F48136C1F0823609F040C0A7
:100120004C2F60E67AEE81E00E9480034C2F60E65F
:100130007AEE82E01BC0853619F1E8F0863681F54B
:100140004C2F60E67AEE85E011C04C2F60E67AEE27
:1001500080E00CC04C2F60E67AEE82E00E948003C3
:10016000C13039F440E060E67AEE81E00E9480031D
:1001700017C041E0F8CF4C2F60E67AEE83E0F6CF6F
:100180004C2F60E67AEE84E0F1CF809169008B33EA
:1001900039F4C0E08C2F0E94DD01CF5FC630D1F76B
:1001A000FF91EF91CF91BF91AF919F918F917F91EF
:1001B0006F915F914F913F912F910F900FBE0F90D4
:1001C0001F9018951F920F920FB60F9211248F93C4
:1001D0009F93AF93BF93EF93FF93E09166008E2FB1
:1001E00090E08E30910508F046C0FC01E65DFF4FBF
:1001F0000C94E00381E23EC0809172009091730004
:1002000009C0809172009091730034C080917E008B
:1002100090917F009CB92FC080917E0090917F00CB
:1002200029C080918A0090918B00F4CF80918A0040
:1002300090918B001FC08091960090919700EACF1B
:10024000809196009091970015C08091A2009091A6
:10025000A300E0CF8091A2009091A3000BC08091F9
:10026000AE009091AF00D6CF8091AE009091AF00DC
:1002700001C08EE28CB9809166008E3019F4109224
:10028000660005C0809166008F5F80936600FF91D5
:10029000EF91BF91AF919F918F910F900FBE0F90F3
:1002A0001F90189518BA8FEF87BB1BBA8ABB15BA77
:1002B00084BB12BA82E081BB10BC80E189B980B5F1
:1002C000866A80BD8AB1886D8AB941E068E370E0D2
:1002D00080E00E949C0140E068E370E081E00E94C1
:1002E0009C0141E06BE370E082E00E949C0164EBC2
:1002F00082E00E94AD0140E06BE370E083E00E9489
:100300009C0164E683E00E94AD0140E065E370E09B
:1003100084E00E949C0168E784E00E94AD0141E016
:1003200065E370E085E00E949C010E94BF010E948D
:10033000B60110926600FFCF9CE0899FF001112466
:10034000E659FF4F80837283618343831186108651
:100350008FEF84838CE6838708952CE0829FC00111
:100360001124FC01E659FF4F6387089589B7816026
:1003700089BF12BE83B7816083BF7894089580E0FF
:1003800090E03FEF2CE0289FF001299FF00D112411
:10039000E659FF4F4481431708F43481289FF00148
:1003A000299FF00D1124E659FF4F168215821782FE
:1003B00001968630910539F70895CF93DF93282F62
:1003C00030E09CE0899FF0011124E659FF4FA581A0
:1003D000B6811097A9F18FEF848313968D919C912C
:1003E0001497892B59F01396CD91DC9114978A813B
:1003F000811102C0128602C083E082878CE0829F56
:10040000F001839FF00D1124E659FF4F11861086ED
:10041000178213968D919C9114979683858383817F
:100420000180F281E02D811103C080818F7002C0B4
:100430008081807F8083CD01DF91CF910C947B04FC
:10044000DF91CF910895DF92EF92FF920F931F9368
:10045000CF93DF93C82FD0E00CE0809FF0011124F0
:10046000E659FF4F9381992329F093E042E061E040
:1004700050E004C097E046E065E054E02CE02C9F9B
:10048000F0012D9FF00D1124E659FF4F22852130F8
:10049000D9F100F1223009F451C0233009F069C0CC
:1004A000E180F280D701DC9021E030E08901062E66
:1004B00001C0000F0A94EAF7702F70957D217C939C
:1004C0000180F281E02D7081092E01C0220F0A9473
:1004D000EAF74DC0E180F280D701DC9021E030E006
:1004E0008901042E01C0000F0A94EAF7702F70955D
:1004F0007D217C930180F281E02D7081052E01C069
:10050000220F0A94EAF733C0E180F280D701DC9031
:1005100021E030E08901092E01C0000F0A94EAF7BA
:10052000702F70957D217C930180F281E02D708188
:10053000062E01C0220F0A94EAF719C0E180F2806A
:10054000D701DC9021E030E08901052E01C0000FC9
:100550000A94EAF7702F70957D217C930180F281D7
:10056000E02D7081042E01C0220F0A94EAF7272B98
:1005700020832CE02C9FF0012D9FF00D1124E659D3
:10058000FF4FA581B68112962C91211108C02285BA
:10059000233011F4128611C022852F5F0DC0A58172
:1005A000B68112962C91213041F42285211102C08E
:1005B00023E002C02285215022872CE02C9FF001ED
:1005C0002D9FF00D1124E659FF4F008511852581DF
:1005D0003681D9012D913C912C5F3F4F02171307B3
:1005E00021F50180F281E02D708121E030E0890168
:1005F00001C0000F6A95EAF7D90101C0AA0F5A9508
:10060000EAF7A02B890102C0000F111F4A95E2F7FB
:10061000A8014A2B01C0220F9A95EAF7242B2095B6
:10062000272320830E94DD0105C0808591850196E6
:10063000918780878CE08C9FF0018D9FF00D1124B5
:10064000E659FF4F8085918594818385891718F439
:10065000848181508483DF91CF911F910F91FF900E
:10066000EF90DF9008951F920F920FB60F92112412
:100670001F932F933F934F935F936F937F938F932A
:100680009F93AF93BF93CF93DF93EF93FF93C0E01C
:10069000D0E01CE01C9FF0011D9FF00D1124E659D5
:1006A000FF4F97818481981310C085819681892B93
:1006B00019F08C2F0E9423021C9FF0011D9FF00D4A
:1006C0001124E659FF4F178203C087818F5F87830C
:1006D0002196C630D105F1F6FF91EF91DF91CF91D0
:1006E000BF91AF919F918F917F916F915F914F914A
:1006F0003F912F911F910F900FBE0F901F90189553
:10070000AF92BF92CF92DF92EF92FF920F931F931F
:10071000CF93DF931F92CDB7DEB76B01E82EF12C9C
:100720009CE0899F90011124D901A659BF4F5D011A
:1007300015960D911C91169785E090E049830E94D3
:10074000E603FC0114821382D182C0824981428374
:100750000115110591F0D80113968D919C91149774
:10076000892B31F0D80113960D911C911497F3CF7A
:100770001496FC93EE93139717C08281811104C0E5
:10078000D5011A961C9204C083E0D5011A968C9369
:100790008CE08E9DD0018F9DB00D1124A659BF4FC6
:1007A0001696FC93EE9315970F90DF91CF911F91C2
:1007B0000F91FF90EF90DF90CF90BF90AF90089592
:1007C000EE0FFF1F0590F491E02D0994CF93DF9376
:1007D0008230910510F482E090E0E091B400F09155
:1007E000B50020E030E0C0E0D0E0309711F140816A
:1007F000518148175907C0F04817590761F48281A1
:100800009381209719F09B838A832BC09093B50026
:100810008093B40026C02115310519F04217530703
:1008200018F49A01BE01DF01EF010280F381E02D8F
:10083000DCCF2115310509F1281B390B2430310596
:1008400090F412968D919C9113976115710521F08A
:10085000FB019383828304C09093B5008093B4001E
:10086000FD01329644C0FD01E20FF31F8193919385
:10087000225031092D933C933AC02091B20030911F
:10088000B300232B41F42091620030916300309338
:10089000B3002093B20020916000309161002115D7
:1008A000310541F42DB73EB7409164005091650089
:1008B000241B350BE091B200F091B300E217F3076F
:1008C000A0F42E1B3F0B2817390778F0AC014E5FC0
:1008D0005F4F2417350748F04E0F5F1F5093B3004A
:1008E0004093B2008193919302C0E0E0F0E0CF0129
:1008F000DF91CF9108950F931F93CF93DF930097CC
:1009000009F48CC0FC013297138212820091B4006A
:100910001091B5000115110581F420813181820FFC
:10092000931F2091B2003091B3002817390779F551
:10093000F093B300E093B20071C0D80140E050E002
:10094000AE17BF0750F412962D913C911397AD014D
:100950002115310509F1D901F3CF9D01DA01338366
:10096000228360817181860F971F8217930769F434
:10097000EC0128813981260F371F2E5F3F4F3183CD
:1009800020838A819B8193838283452B29F4F09372
:10099000B500E093B40042C01396FC93EE93129717
:1009A000ED01499159919E01240F351FE217F3077C
:1009B00071F480819181840F951F029611969C930A
:1009C0008E938281938113969C938E931297E0E08D
:1009D000F0E0D80112968D919C911397009719F031
:1009E000F8018C01F6CF8D919C9198012E5F3F4FBD
:1009F000820F931F2091B2003091B300281739075E
:100A000069F4309729F41092B5001092B40002C036
:100A1000138212821093B3000093B200DF91CF9142
:0A0A20001F910F910895F894FFCF85
:060A2A000000B6002000F0
:00000001FF
