S020000041746D6567613136417474656D70744D6F746F72537465702E73726563C2
S11300000C9438000C9455000C9455000C94550035
S11300100C9455000C9455000C9455000C94550008
S11300200C9455000C9498040C9455000C945700AF
S11300300C9455000C940F010C9455000C9455002D
S11300400C9455000C9455000C9455000C945500D8
S11300500C94550027012A01300136013C0142016C
S113006048014E0154015A01600166016C0172019C
S113007011241FBECFE5D4E0DEBFCDBF20E0A6E64D
S1130080B0E001C01D92A63BB207E1F710E0A0E684
S1130090B0E0EAE5FDE002C005900D92A636B10796
S11300A0D9F70E948B010C94AB060C9400001F92AC
S11300B00F920FB60F9211242F933F934F935F9398
S11300C06F937F938F939F93AF93BF93CF93EF934C
S11300D0FF93E7E6F0E081818083828181838CB1A4
S11300E0828382818E32D1F5809168008C3309F449
S11300F04FC0809168008E3309F06AC0C0E069C0C7
S1130100C1E04C2F60E67AEE80E00E94100575C0D5
S1130110C1E04C2F60E67AEE81E00E9410054C2F7E
S113012060E67AEE82E00E94100567C0C1E04C2FC1
S113013060E67AEE83E00E9410055FC0C1E04C2FB8
S113014060E67AEE84E00E94100557C0C1E04C2FAF
S113015060E67AEE85E00E9410054FC08091690048
S11301608B3309F04AC0C0E08C2F0E944402CF5F59
S1130170C630D1F742C041E060E67AEE82E00E94E8
S1130180100540E060E67AEE81E00E94100535C07B
S113019080916700833679F338F4813609F4B0CF5F
S11301A0823609F4B5CF29C0853641F208F4BECFB2
S11301B0863661F222C04C2F60E67AEE82E00E941D
S11301C0100541E060E67AEE81E00E94100515C05A
S11301D0C2E080916700833671F338F4813609F404
S11301E090CF823609F495CF08C0853609F4A7CF9D
S11301F008F49DCF863609F4AACFFF91EF91CF91F1
S1130200BF91AF919F918F917F916F915F914F912A
S11302103F912F910F900FBE0F901F9018951F9232
S11302200F920FB60F9211248F939F93AF93BF93A6
S1130230EF93FF93E09166008E2F90E08E3091054E
S113024008F052C0FC01E65DFF4F0C94780581E292
S11302508CB94AC080917200909173009CB944C0DB
S113026080917200909173008CB93EC080917E00A1
S113027090917F009CB938C080917E0090917F005E
S11302808CB932C080918A0090918B009CB92CC0AB
S113029080918A0090918B008CB926C08091960041
S11302A0909197009CB920C08091960090919700FE
S11302B08CB91AC08091A2009091A3009CB914C07B
S11302C08091A2009091A3008CB90EC08091AE00E1
S11302D09091AF009CB908C08091AE009091AF009E
S11302E08CB902C08EE28CB9809166008E3019F40C
S11302F01092660005C0809166008F5F809366004F
S1130300FF91EF91BF91AF919F918F910F900FBE8D
S11303100F901F90189518BA8FEF87BB1BBA8ABB32
S113032015BA84BB12BA82E081BB10BC80E189B9E2
S113033080B5866A80BD8AB1886D8AB941E068E378
S113034070E080E00E94D50140E068E370E081E065
S11303500E94D50141E06BE370E082E00E94D50188
S113036064EB82E00E94F70140E06BE370E083E01D
S11303700E94D50164E683E00E94F70140E065E352
S113038070E084E00E94D50168E784E00E94F701F0
S113039041E065E370E085E00E94D5010E940E0211
S11303A00E94050210926600FFCF282F30E0F90169
S11303B0EE0FFF1FDF01A20FB31FAA0FBB1FAA0F6F
S11303C0BB1FA659BF4F8C9312967C936E931197C3
S11303D013964C93139719961C921E9218978FEFAD
S11303E014968C931497FD018CE68387089590E00E
S11303F0FC01EE0FFF1FE80FF91FEE0FFF1FEE0FBA
S1130400FF1FE659FF4F6387089589B7816089BF4D
S113041012BE83B7816083BF7894089520E030E0F2
S11304205FEFC901F901EE0FFF1FE20FF31FEE0F9B
S1130430FF1FEE0FFF1FE659FF4F4481451760F47D
S1130440F901EE0FFF1FE20FF31FEE0FFF1FEE0F78
S1130450FF1FE659FF4F5481FC01EE0FFF1FDF0120
S1130460A80FB91FAA0FBB1FAA0FBB1FA659BF4FC6
S113047016961C921E921597FD0117822F5F3F4F0F
S11304802630310571F60895282F30E0F901EE0F7A
S1130490FF1FE20FF31FEE0FFF1FEE0FFF1FE659C2
S11304A0FF4FA581B681109709F471C0F901EE0FD1
S11304B0FF1FE20FF31FEE0FFF1FEE0FFF1FE659A2
S11304C0FF4F8FEF848313968D919C911497892B02
S11304D009F11396ED91FC911497828181110DC05D
S11304E0F901EE0FFF1FE20FF31FEE0FFF1FEE0FD8
S11304F0FF1FE659FF4F12860DC0F901EE0FFF1FD3
S1130500E20FF31FEE0FFF1FEE0FFF1FE659FF4F21
S113051083E08287F901EE0FFF1FE20FF31FEE0F56
S1130520FF1FEE0FFF1FE659FF4F1186108617823B
S113053013968D919C911497968385838381811161
S113054012C0F901EE0FFF1FE20FF31FEE0FFF1FA2
S1130550EE0FFF1FE659FF4F0180F281E02D8081ED
S11305608F70808311C0F901EE0FFF1FE20FF31F9C
S1130570EE0FFF1FEE0FFF1FE659FF4F0180F281C0
S1130580E02D8081807F8083CD010E941306089531
S1130590DF92EF92FF920F931F93CF93DF93C82FB5
S11305A0D0E0FE01EE0FFF1FEC0FFD1FEE0FFF1F4B
S11305B0EE0FFF1FE659FF4F9381992329F093E033
S11305C022E041E030E004C097E026E045E034E07A
S11305D0FE01EE0FFF1FEC0FFD1FEE0FFF1FEE0FCE
S11305E0FF1FE659FF4F5285513089F138F05230E0
S11305F009F456C0533009F47CC0A3C0FE01EE0FC9
S1130600FF1FEC0FFD1FEE0FFF1FEE0FFF1FE6593C
S1130610FF4FE180F280D701DC9061E070E08B0154
S1130620022E02C0000F111F0A94E2F7502F5095BA
S11306305D215C930180F281E02D5081032E02C084
S1130640660F771F0A94E2F7652B60837AC0FE0178
S1130650EE0FFF1FEC0FFD1FEE0FFF1FEE0FFF1F2E
S1130660E659FF4FE180F280D701DC9061E070E051
S11306708B01092E02C0000F111F0A94E2F7502FBC
S113068050955D215C930180F281E02D5081042E10
S113069002C0660F771F0A94E2F7652B608351C08E
S11306A0FE01EE0FFF1FEC0FFD1FEE0FFF1FEE0FFD
S11306B0FF1FE659FF4FE180F280D701DC9061E033
S11306C070E08B01032E02C0000F111F0A94E2F7A1
S11306D0502F50955D215C930180F281E02D508173
S11306E0022E02C0660F771F0A94E2F7652B60831F
S11306F028C0FE01EE0FFF1FEC0FFD1FEE0FFF1FC2
S1130700EE0FFF1FE659FF4FE180F280D701DC9026
S113071061E070E08B01042E02C0000F111F0A94E7
S1130720E2F7502F50955D215C930180F281E02D1A
S11307305081092E02C0660F771F0A94E2F7652BD9
S11307406083FE01EE0FFF1FEC0FFD1FEE0FFF1F76
S1130750EE0FFF1FE659FF4F0580F681E02D528111
S113076051112AC0FE01EE0FFF1FEC0FFD1FEE0F0B
S1130770FF1FEE0FFF1FE659FF4F5285533069F4F8
S1130780FE01EE0FFF1FEC0FFD1FEE0FFF1FEE0F1C
S1130790FF1FE659FF4F12864AC0FE01EE0FFF1FEE
S11307A0EC0FFD1FEE0FFF1FEE0FFF1FE659FF4F6B
S11307B052855F5F52873BC0FE01EE0FFF1FEC0FB7
S11307C0FD1FEE0FFF1FEE0FFF1FE659FF4F0580C1
S11307D0F681E02D5281513051F5FE01EE0FFF1FDD
S11307E0EC0FFD1FEE0FFF1FEE0FFF1FE659FF4F2B
S11307F0528551110EC0FE01EE0FFF1FEC0FFD1FBD
S1130800EE0FFF1FEE0FFF1FE659FF4F53E0528715
S11308100EC0FE01EE0FFF1FEC0FFD1FEE0FFF1FBA
S1130820EE0FFF1FE659FF4F528551505287FE01CC
S1130830EE0FFF1FEC0FFD1FEE0FFF1FEE0FFF1F4C
S1130840E659FF4FA085B1850580F681E02D6081D2
S113085071816C5F7F4FA617B70791F5FE01EE0F0C
S1130860FF1FEC0FFD1FEE0FFF1FEE0FFF1FE659DA
S1130870FF4F0180F281E02D508161E070E08B0137
S113088002C0000F111F4A95E2F7DB0102C0AA0F54
S1130890BB1F3A95E2F7A02B8B0102C0000F111F7A
S11308A02A95E2F798012A2B02C0660F771F9A95C2
S11308B0E2F7622B6095652360830E94440210C0B6
S11308C0FE01EE0FFF1FEC0FFD1FEE0FFF1FEE0FDB
S11308D0FF1FE659FF4F8085918501969187808798
S11308E0FE01EE0FFF1FEC0FFD1FEE0FFF1FEE0FBB
S11308F0FF1FE659FF4F8085918594818385891771
S113090078F49E01220F331FF901EC0FFD1FEE0F47
S1130910FF1FEE0FFF1FE659FF4F84818150848330
S1130920DF91CF911F910F91FF90EF90DF90089589
S11309301F920F920FB60F9211240F931F932F93B0
S11309403F934F935F936F937F938F939F93AF9353
S1130950BF93CF93DF93EF93FF93C0E0D0E08C2F4E
S11309608E01FE01EE0FFF1FEC0FFD1FEE0FFF1FA8
S1130970EE0FFF1FE659FF4F2781948129131EC0F4
S1130980FE01EE0FFF1FEC0FFD1FEE0FFF1FEE0F1A
S1130990FF1FE659FF4F25813681232B11F00E945A
S11309A0C802F801EE0FFF1FE00FF11FEE0FFF1F4B
S11309B0EE0FFF1FE659FF4F178218C0CE01880FB4
S11309C0991FFC01EC0FFD1FEE0FFF1FEE0FFF1F21
S11309D0E659FF4F27812F5FFC01EC0FFD1FEE0F3F
S11309E0FF1FEE0FFF1FE659FF4F27832196C630E6
S11309F0D10509F0B4CFFF91EF91DF91CF91BF9171
S1130A00AF919F918F917F916F915F914F913F91A2
S1130A102F911F910F910F900FBE0F901F9018955B
S1130A20DF92EF92FF920F931F93CF93DF938B018B
S1130A30D42EE82EF12CF701EE0FFF1FEE0DFF1D53
S1130A40EE0FFF1FEE0FFF1FE659FF4FC581D68142
S1130A5085E090E00E947E05FC01148213821183DC
S1130A600083D282209771F08B819C81892B39F08D
S1130A700B80DC81C02D2B813C81232BC9F7FC83A7
S1130A80EB832EC0828181110EC0D701AA0FBB1F38
S1130A90AE0DBF1DAA0FBB1FAA0FBB1FA659BF4F88
S1130AA01A961C920EC0D701AA0FBB1FAE0DBF1D14
S1130AB0AA0FBB1FAA0FBB1FA659BF4F83E01A96EC
S1130AC08C93D701AA0FBB1FAE0DBF1DAA0FBB1F6E
S1130AD0AA0FBB1FA659BF4F1696FC93EE9315970A
S1130AE0DF91CF911F910F91FF90EF90DF900895C8
S1130AF0EE0FFF1F0590F491E02D0994CF93DF933F
S1130B008230910510F482E090E0E091B400F0911D
S1130B10B50020E030E0C0E0D0E0309711F1408132
S1130B20518148175907C0F04817590761F4828169
S1130B309381209719F09B838A832BC09093B500EF
S1130B408093B40026C02115310519F042175307CC
S1130B5018F49A01BE01DF01EF010280F381E02D58
S1130B60DCCF2115310509F1281B390B243031055F
S1130B7090F412968D919C9113976115710521F053
S1130B80FB019383828304C09093B5008093B400E7
S1130B90FD01329644C0FD01E20FF31F819391934E
S1130BA0225031092D933C933AC02091B2003091E8
S1130BB0B300232B41F42091620030916300309301
S1130BC0B3002093B20020916000309161002115A0
S1130BD0310541F42DB73EB7409164005091650052
S1130BE0241B350BE091B200F091B300E217F30738
S1130BF0A0F42E1B3F0B2817390778F0AC014E5F89
S1130C005F4F2417350748F04E0F5F1F5093B30012
S1130C104093B2008193919302C0E0E0F0E0CF01F1
S1130C20DF91CF9108950F931F93CF93DF93009794
S1130C3009F48CC0FC013297138212820091B40033
S1130C401091B5000115110581F420813181820FC5
S1130C50931F2091B2003091B3002817390779F51A
S1130C60F093B300E093B20071C0D80140E050E0CB
S1130C70AE17BF0750F412962D913C911397AD0116
S1130C802115310509F1D901F3CF9D01DA0133832F
S1130C90228360817181860F971F8217930769F4FD
S1130CA0EC0128813981260F371F2E5F3F4F318396
S1130CB020838A819B8193838283452B29F4F0933B
S1130CC0B500E093B40042C01396FC93EE931297E0
S1130CD0ED01499159919E01240F351FE217F30745
S1130CE071F480819181840F951F029611969C93D3
S1130CF08E938281938113969C938E931297E0E056
S1130D00F0E0D80112968D919C911397009719F0F9
S1130D10F8018C01F6CF8D919C9198012E5F3F4F85
S1130D20820F931F2091B2003091B3002817390726
S1130D3069F4309729F41092B5001092B40002C0FF
S1130D40138212821093B3000093B200DF91CF910B
S10D0D501F910F910895F894FFCF4E
S1090D5A0000B6002000B9
S9030000FC
