S020000041746D6567613136417474656D70744D6F746F72537465702E73726563C2
S11300000C942A000C943C000C943C000C943C008E
S11300100C943C000C943C000C948B010C943C001C
S11300200C943C000C9472060C943C000C943E001E
S11300300C943C000C943C000C943C000C943C004C
S11300400C943C000C943C000C943C000C943C003C
S11300500C943C0011241FBECFE5D4E0DEBFCDBF1D
S113006023E0A0E6B0E001C01D92AE3CB207E1F788
S11300700E94F4000C945D080C9400001F920F92EF
S11300800FB60F921124EF920F932F933F934F9338
S11300905F936F937F938F939F93AF93BF93EF93EC
S11300A0FF93E0E6F0E08181808382818183838114
S11300B08283848183838581848386818583878108
S11300C086838CB1878387818E3209F054C08091F6
S11300D061008C3331F0809161008E3321F440E073
S11300E003C041E001C042E0E0E6F0E0638170E07B
S11300F0762F66278281682B8081833779F128F4F3
S11301008C3689F08D3631F05CC08437F1F0853758
S113011099F057C0E0E6F0E0E6800581248183E0B1
S11301200E9416074EC0E0E6F0E0E68005812481D7
S113013082E00E94160745C0E0E6F0E0E680058113
S1130140248181E00E9416073CC0E0E6F0E0E680EE
S11301500581248180E00E94160733C080916100EC
S1130160833579F1E0E6F0E006812581448180E081
S11301700E94480226C0809167008B3369F480E0B6
S11301800E940D0481E00E940D0482E00E940D048F
S113019083E00E940D0415C080916700883539F40E
S11301A083B78E7F83BF8EB58C7F8EBD0AC080914E
S11301B06700893531F483B7816083BF8EB583606E
S11301C08EBDFF91EF91BF91AF919F918F917F91E0
S11301D06F915F914F913F912F910F91EF900F90FD
S11301E00FBE0F901F90189518BA8FEF87BB1BBADC
S11301F08ABB15BA84BB12BA82E081BB10BC80E111
S113020089B980B5866880BD8AB1886D8AB941E0B4
S113021068E370E080E00E94AE0340E068E370E0D1
S113022081E00E94AE0340E065E370E083E00E9459
S1130230AE0341E065E370E082E00E94AE0320E09B
S113024030E045E062E370E080E00E9436020E9404
S1130250C9030E94BF030E943E010EE627E040E06E
S113026068EC70E080E00E94480209E728E047E07B
S113027060E971E080E00E944802FFCF80E090E0F6
S1130280FC01EE0FFF1FEE0FFF1FE80FF91FE059EF
S1130290FF4F1082138214821282118201968A30D7
S11302A0910571F731C080916B00853021F5E8E646
S11302B0F0E0238141B381E090E0BC0102C0660F0D
S11302C0771F2A95E2F79B01242B21BB338122B3AC
S11302D002C0880F991F3A95E2F780959095822382
S11302E082BB848195819BBD8ABD8FB582688FBD99
S11302F08EB58B618EBD87E893E197BD86BD89B7C6
S1130300806189BF789408958091690090916A0012
S1130310C29789F7C8CF1F920F920FB60F9211247C
S1130320EF920F932F933F934F935F936F937F932A
S11303308F939F93AF93BF93EF93FF9380916F003D
S1130340882309F45FC080916F00843608F455C097
S11303500F2EFEE6EF2EF02D04E620E040E060E2F2
S113036073E080E00E941607A8E6B0E016968C9130
S1130370169790E0FC01EE0FFF1FEE0FFF1F8E0F8C
S11303809F1FFC01E059FF4F248116968C9116970C
S113039090E0FC01EE0FFF1FEE0FFF1F8E0F9F1F5B
S11303A0FC01E059FF4F148216968C91169790E049
S11303B0FC01EE0FFF1FEE0FFF1F8E0F9F1FFC01AE
S11303C0E059FF4F138216968C91169790E0FC012A
S11303D0EE0FFF1FEE0FFF1F8E0F9F1FFC01E05952
S11303E0FF4F1282118216962C93169715961C9223
S11303F01E92149717961C9205C0E8E6F0E08781D8
S11304008F5F8783FF91EF91BF91AF919F918F9100
S11304107F916F915F914F913F912F910F91EF9049
S11304200F900FBE0F901F90189590E0FC01EE0FF7
S1130430FF1FEE0FFF1FEE0FFF1FE859FF4F218133
S113044032812233310589F4880F991F880F991F4F
S1130450880F991FFC01E859FF4F8381853029F4E7
S11304606115710511F07BBD6ABD0895E82FF0E0B8
S1130470EE0FFF1FEE0FFF1FEE0FFF1FE859FF4F98
S11304808083358324834383728361831782089531
S11304900F931F93CF93DF931F92CDB7DEB7093726
S11304A039F09091A800941709F4D4C092E029C0BF
S11304B090917500941709F4C8C0E2E0F0E09E2F13
S11304C0DF01AA0FBB1FAA0FBB1FAE0FBF1FA0598E
S11304D0BF4F3C91341307C0442369F001C091E03D
S11304E0492F50E809C091E09E0F3196EA30F1059A
S11304F031F750E801C050E09A30F9F450E040E0A0
S11305001CC0E92FF0E0DF01AA0FBB1FEA0FFB1F9D
S1130510EE0FFF1FEE55FF4F3081341306C0442306
S113052031F001C091E0492F02C09F5F52F790382B
S113053019F450E040E001C050E0E0917600F09101
S11305407700EF2BA1F0E2E0F0E03E2F8F01DF0116
S1130550AA0FBB1FAA0FBB1FAE0FBF1FA059BF4FCF
S113056011960D90BC91A02DAB2BA9F403C001E012
S113057010E031E0F801EE0FFF1FEE0FFF1F0E0F2A
S11305801F1FF801E059FF4F728361832083148297
S1130590450F438306C031E03E0F3196EA30F10542
S11305A0A1F690E0FC01EE0FFF1FEE0FFF1FEE0F10
S11305B0FF1FE859FF4F2681298329812223D1F186
S11305C0898190E0FC01EE0FFF1FEE0FFF1F8E0FDD
S11305D09F1FFC01E059FF4F84818823E9F0898142
S11305E090E0FC01EE0FFF1FEE0FFF1F8E0F9F1F09
S11305F0FC01E059FF4F84818983898190E0FC01EB
S1130600EE0FFF1FEE0FFF1F8E0F9F1FFC01E0591F
S1130610FF4F84818111E3CF898190E0FC01EE0FCB
S1130620FF1FEE0FFF1F8E0F9F1FFC01E059FF4FAE
S1130630348315C0880F991F880F991F880F991F3D
S1130640FC01E859FF4F36830AC0911148CF50E0AE
S113065040E073CF911166CF50E040E06ECF0F9031
S1130660DF91CF911F910F910895CF93DF93482F7E
S113067050E0FA01EE0FFF1FEE0FFF1FEE0FFF1FFA
S1130680E859FF4F268130E0F901EE0FFF1FEE0F0E
S1130690FF1F2E0F3F1FF901E059FF4F238121381F
S11306A0D8F0205830E0F901EE0FFF1FEE0FFF1FC6
S11306B02E0F3F1FF901E059FF4F238130E0F9016C
S11306C0EE0FFF1FEE0FFF1F2E0F3F1FF901E05922
S11306D0FF4F218132811AC02223D1F030E0F90189
S11306E0EE0FFF1FEE0FFF1F2E0F3F1FF901E05902
S11306F0FF4F238130E0F901EE0FFF1FE20FF31FDC
S1130700EE0FFF1FEE55FF4F22813381211123C0CD
S1130710FA01EE0FFF1FEE0FFF1FEE0FFF1FE85948
S1130720FF4F9781911117C0EF01268130E0F90145
S1130730EE0FFF1FEE0FFF1F2E0F3F1FF901E059B1
S1130740FF4F218132813D832C836C817D810E9406
S1130750150281E08F83DF91CF9108959BE0899FFB
S1130760F0011124EE55FC4F80837283618343832F
S1130770108617828FEF84838CE68287089589B769
S1130780816089BF81E082BF83B7816083BF789431
S1130790089580E090E06FEF2BE0AC01289FF0011A
S11307A0299FF00D1124EE55FC4F3481361740F487
S11307B0289FF001299FF00D1124EE55FC4F648110
S11307C0249FF001259FF00D1124EE55FC4F158256
S11307D0168201968430910501F720E030E042E072
S11307E0C901880F991FFC01E20FF31FEE0FFF1FD1
S11307F0EE55FF4F14824183108213821282FC0152
S1130800E20FF31FEE0FFF1FEE55FF4F15822F5F10
S11308103F4F2038310521F70895CF93DF931F927E
S1130820CDB7DEB7282F30E09BE0899FF00111247B
S1130830EE55FC4F85818983898190E0FC01EE0FA0
S1130840FF1FE80FF91FEE0FFF1FEE55FF4F138236
S11308501282898190E0FC01EE0FFF1FE80FF91F5F
S1130860EE0FFF1FEE55FF4F1482898190E0FC01CB
S1130870EE0FFF1FE80FF91FEE0FFF1FEE55FF4F9E
S113088082E081838981882309F47EC08BE0829F82
S1130890F001839FF00D1124EE55FC4F8FEF8483FC
S11308A0898190E0FC01EE0FFF1FE80FF91FEE0FA6
S11308B0FF1FEE55FF4F8581882369F1898190E000
S11308C0FC01EE0FFF1FE80FF91FEE0FFF1FEE559F
S11308D0FF4F858190E0FC01EE0FFF1FE80FF91F29
S11308E0EE0FFF1FEE55FF4F818181110AC08BE08F
S11308F0829FF001839FF00D1124EE55FC4F118669
S11309000AC08BE0829FF001839FF00D1124EE5505
S1130910FC4F83E081878BE0829FD001839FB00DE1
S11309201124AE55BC4F18961C921E92179716961A
S11309301C921697898190E0FC01EE0FFF1FE80FCF
S1130940F91FEE0FFF1FEE55FF4F858115968C930F
S1130950159713968C911397811108C0FD0101809E
S1130960F281E02D80818F7080830EC08BE0829FA6
S1130970F001839FF00D1124EE55FC4F0180F281AC
S1130980E02D8081807F80830F90DF91CF91089547
S1130990DF92EF92FF920F931F93CF93DF93C82FB1
S11309A0D0E00BE0809FF0011124EE55FC4F9381C1
S11309B0992329F093E042E061E050E004C097E01D
S11309C046E065E054E02BE02C9FF0012D9FF00DF4
S11309D01124EE55FC4F2185213071F138F022307D
S11309E009F450C0233009F473C097C02BE02C9F46
S11309F0F0012D9FF00D1124EE55FC4FE180F280A3
S1130A00D701DC9021E030E08901042E02C0000F00
S1130A10111F0A94E2F7702F70957D217C93018059
S1130A20F281E02D7081052E02C0220F331F0A943B
S1130A30E2F7272B208371C02BE02C9FF0012D9F20
S1130A40F00D1124EE55FC4FE180F280D701DC90CB
S1130A5021E030E08901092E02C0000F111F0A9421
S1130A60E2F7702F70957D217C930180F281E02D57
S1130A707081062E02C0220F331F0A94E2F7272B3F
S1130A8020834BC02BE02C9FF0012D9FF00D1124EF
S1130A90EE55FC4FE180F280D701DC9021E030E09C
S1130AA08901052E02C0000F111F0A94E2F7702F6E
S1130AB070957D217C930180F281E02D7081042E5C
S1130AC002C0220F331F0A94E2F7272B208325C08C
S1130AD02BE02C9FF0012D9FF00D1124EE55FC4FBF
S1130AE0E180F280D701DC9021E030E08901062E1C
S1130AF002C0000F111F0A94E2F7702F70957D2138
S1130B007C930180F281E02D7081092E02C0220FB6
S1130B10331F0A94E2F7272B20832BE02C9FF0014C
S1130B202D9FF00D1124EE55FC4F258130E0F90185
S1130B30EE0FFF1FE20FF31FEE0FFF1FEE55FF4FE7
S1130B402181211121C02BE02C9FF0012D9FF00D5C
S1130B501124EE55FC4F2185233051F42BE02C9FBA
S1130B60F0012D9FF00D1124EE55FC4F118643C06A
S1130B702BE02C9FF0012D9FF00D1124EE55FC4F1E
S1130B8021852F5F218737C02BE02C9FF0012D9FFB
S1130B90F00D1124EE55FC4F258130E0F901EE0FE4
S1130BA0FF1FE20FF31FEE0FFF1FEE55FF4F2181D2
S1130BB0213009F52BE02C9FF0012D9FF00D11241D
S1130BC0EE55FC4F218521110BC02BE02C9FF00129
S1130BD02D9FF00D1124EE55FC4F23E021870BC00F
S1130BE02BE02C9FF0012D9FF00D1124EE55FC4FAE
S1130BF02185215021872BE02C9FF0012D9FF00DA2
S1130C001124EE55FC4FA781B085258130E0F90110
S1130C10EE0FFF1FE20FF31FEE0FFF1FEE55FF4F06
S1130C20228133812C5F3F4FA217B30779F52BE064
S1130C302C9FF0012D9FF00D1124EE55FC4F0180E7
S1130C40F281E02D708121E030E0890102C0000FC3
S1130C50111F6A95E2F7D90102C0AA0FBB1F5A956A
S1130C60E2F7A02B890102C0000F111F4A95E2F799
S1130C70A8014A2B02C0220F331F9A95E2F7242BB6
S1130C802095272320830E940D040DC08BE08C9FA8
S1130C90F0018D9FF00D1124EE55FC4F8781908556
S1130CA00196908787838BE08C9FF0018D9FF00DD8
S1130CB01124EE55FC4F94818285891758F48BE0FA
S1130CC08C9FF0018D9FF00D1124EE55FC4F848113
S1130CD081508483DF91CF911F910F91FF90EF900A
S1130CE0DF9008951F920F920FB60F921124EF9286
S1130CF0FF921F932F933F934F935F936F937F9331
S1130D008F939F93AF93BF93CF93DF93EF93FF930F
S1130D10C0E0D0E01BE08C2F7E011C9FF0011D9FE2
S1130D20F00D1124EE55FC4F26819481291350C0F7
S1130D301C9FF0011D9FF00D1124EE55FC4F958171
S1130D409923E9F11E9DF0011F9DF00D1124EE552C
S1130D50FC4F258130E0F901EE0FFF1FE20FF31F76
S1130D60EE0FFF1FEE55FF4F2481211103C00E9497
S1130D70C80425C0213898F0205830E0F901EE0F5E
S1130D80FF1FEE0FFF1F2E0F3F1FF901E059FF4F0A
S1130D9021813281232B99F40E94C80410C030E0D1
S1130DA0F901EE0FFF1FE20FF31FEE0FFF1FEE55C9
S1130DB0FF4F22813381232B11F40E94C8041E9D0E
S1130DC0F0011F9DF00D1124EE55FC4F16820AC050
S1130DD01C9FF0011D9FF00D1124EE55FC4F8681E0
S1130DE08F5F86832196C430D10509F094CF04C067
S1130DF080E00E94350304C080916E008111F8CF19
S1130E00FF91EF91DF91CF91BF91AF919F918F911E
S1130E107F916F915F914F913F912F911F91FF901F
S1130E20EF900F900FBE0F901F901895EF920F93B5
S1130E30CF93DF9300D0CDB7DEB799E7E91639F049
S1130E409091A800921709F42CC192E029C09091C6
S1130E507500921709F420C1E2E0F0E09E2FDF0153
S1130E60AA0FBB1FAA0FBB1FAE0FBF1FA059BF4FB6
S1130E703C91321307C0222369F001C091E0292F6D
S1130E8030E809C091E09E0F3196EA30F10531F760
S1130E9030E801C030E09A30F9F430E020E01CC0C2
S1130EA0E92FF0E0DF01AA0FBB1FEA0FFB1FEE0FD3
S1130EB0FF1FEE55FF4F3081321306C0222331F05D
S1130EC001C091E0292F02C09F5F52F7903819F4B6
S1130ED030E020E001C030E091E0998399819923CA
S1130EE00CF469C0E981F0E0DF01AA0FBB1FEA0F2F
S1130EF0FB1FEE0FFF1FEE55FF4F0280F381E02D25
S1130F00EF2B09F051C011C0E981F0E0DF01AA0F15
S1130F10BB1FEA0FFB1FEE0FFF1FEE55FF4F0280B2
S1130F20F381E02DEF2B09F03FC0E981F0E0DF0110
S1130F30AA0FBB1FEA0FFB1FEE0FFF1FEE55FF4F5B
S1130F400083E981F0E0DF01AA0FBB1FEA0FFB1F5A
S1130F50EE0FFF1FEE55FF4F1582E981F0E0DF0130
S1130F60AA0FBB1FEA0FFB1FEE0FFF1FEE55FF4F2B
S1130F704183498150E0FA01EE0FFF1FE40FF51F92
S1130F80EE0FFF1FEE55FF4F73836283498150E0DC
S1130F90230FFA01EE0FFF1FE40FF51FEE0FFF1FE3
S1130FA0EE55FF4F248307C099819F5F99839981F0
S1130FB099230CF0A9CF282F30E09BE0899FF00102
S1130FC01124EE55FC4F85818A838A818823B9F1E7
S1130FD08A8190E0FC01EE0FFF1FE80FF91FEE0F6E
S1130FE0FF1FEE55FF4F85818823D9F08A8190E059
S1130FF0FC01EE0FFF1FE80FF91FEE0FFF1FEE5568
S1131000FF4F85818A838A8190E0FC01EE0FFF1FE8
S1131010E80FF91FEE0FFF1FEE55FF4F8581811179
S1131020E5CF8A8190E02981FC01EE0FFF1FE80FD4
S1131030F91FEE0FFF1FEE55FF4F258337C089813F
S113104090E0FC01EE0FFF1FE80FF91FEE0FFF1FEA
S1131050EE55FF4F818181110AC08BE0829FF00120
S1131060839FF00D1124EE55FC4F11860AC08BE0CE
S1131070829FF001839FF00D1124EE55FC4F83E015
S1131080818789819BE0929FF001939FF00D112449
S1131090EE55FC4F85830AC09111F0CE30E020E07C
S11310A01BCF91110ECF30E020E016CF0F900F90A0
S11110B0DF91CF910F91EF900895F894FFCF48
S9030000FC
