:100000000C942A000C943C000C943C000C943C0092
:100010000C943C000C943C000C948F010C943C001C
:100020000C943C000C94C0040C943C000C943E00D6
:100030000C943C000C943C000C943C000C943C0050
:100040000C943C000C943C000C943C000C943C0040
:100050000C943C0011241FBECFE5D4E0DEBFCDBF21
:1000600023E0A0E6B0E001C01D92AE3CB207E1F78C
:100070000E9405010C94FC050C9400001F920F9245
:100080000FB60F921124EF920F932F933F934F933C
:100090005F936F937F938F939F93AF93BF93EF93F0
:1000A000FF93809161008093600080916200809353
:1000B000610080916300809362008091640080936E
:1000C0006300809165008093640080916600809356
:1000D000650080916700809366008CB18093670013
:1000E000809167008E3209F058C0809161008C3396
:1000F00031F0809161008E3321F440E003C041E093
:1001000001C042E06091630070E0762F6627809125
:100110006200682B80916000833769F168F48C3647
:10012000C1F08D3609F05EC0E09066000091650078
:100130002091640083E014C08437A9F0853709F06A
:1001400051C0E0906600009165002091640081E05C
:1001500007C0E0906600009165002091640082E095
:100160000E9437053FC0E090660000916500209135
:10017000640080E0F5CF80916100833521F480E058
:100180000E94D9012FC00091660020916500409126
:10019000640080E00E94FB0125C0809167008B33E2
:1001A00069F480E00E94300381E00E94300382E025
:1001B0000E94300383E00E94300314C080916700E6
:1001C000883531F483B78E7F83BF8EB58C7F09C0AD
:1001D00080916700893531F483B7816083BF8EB524
:1001E00083608EBDFF91EF91BF91AF919F918F91F1
:1001F0007F916F915F914F913F912F910F91EF9070
:100200000F900FBE0F901F90189518BA8FEF87BBF5
:100210001BBA8ABB15BA84BB12BA82E081BB10BC80
:1002200080E189B980B5866880BD8AB1886D8AB958
:1002300041E068E370E080E00E94DA0240E068E3B9
:1002400070E082E00E94DA0240E065E370E083E063
:100250000E94DA0241E065E370E081E00E94DA0288
:1002600068EC81E00E94EB0220E030E045E062E3D0
:1002700070E080E00E94ED010E94FE020E94F40204
:100280000E944301FFCF80E090E025E0289FF0012D
:10029000299FF00D1124E059FF4F10821382148220
:1002A0001282118201968A30910581F7809169004E
:1002B00090916A00C29751F580916B00853031F5BD
:1002C00020916B0041B381E090E0BC0102C0660F59
:1002D000771F2A95E2F79B01242B21BB30916B00FD
:1002E00022B302C0880F991F3A95E2F78095909546
:1002F000822382BB80916C0090916D009BBD8ABD72
:100300008FB582688FBD8EB58B618EBD87E893E116
:1003100097BD86BD89B7806189BF789408951F9283
:100320000F920FB60F9211248F939F93EF93FF9329
:1003300080916F008823A1F180916F00843658F17D
:10034000E0916E0085E08E9FF0011124E059FF4F8F
:100350009481E0916E008E9FF0011124E059FF4FCF
:100360001482E0916E008E9FF0011124E059FF4F3E
:100370001382E0916E008E9FF0011124E059FF4F2F
:100380001282118290936E0010926D0010926C0098
:1003900010926F0005C080916F008F5F80936F0097
:1003A000FF91EF919F918F910F900FBE0F901F9033
:1003B000189528E0829FC0011124FC01E859FF4FE5
:1003C00081819281C29741F48381853029F461153E
:1003D000710511F07BBD6ABD089598E0899FF00119
:1003E0001124E859FF4F808335832483438372832C
:1003F000618317820895EF92FF920F931F93CF931B
:10040000DF931F92CDB7DEB7E1E0F0E00937B1F43A
:1004100095E03E2F9E9FD0019F9FB00D1124A059C3
:10042000BF4F5C91541305C041116BC030E090E0A8
:1004300069C03196EA30F10561F716C036E09E2FAB
:10044000E038F10579F03E9FD0013F9FB00D1124B7
:10045000AE55BF4F5C9131965413F1CF411107C097
:1004600090E005C0E03821F490E040E002C0492F60
:1004700090E0A1E0B0E055E03A2F5A9FF0015B9F79
:10048000F00D1124E059FF4F8F010F5F1F4FE180E6
:10049000F280EF2849F4D80111967C936E93208363
:1004A0001482490F438305C01196AA30B10521F784
:1004B0003AE0B8E08B9FF0011124E859FF4F8681A4
:1004C000898389818823D9F085E0E9818E9FF001B5
:1004D0001124E059FF4F9481E981992341F08E9FC7
:1004E000F0011124E059FF4F94819983EECF85E00C
:1004F000E89FF0011124E059FF4F348305C0368393
:1005000003C090E8432FB5CF0F90DF91CF911F919B
:100510000F91FF90EF900895CF93DF9398E0899F1C
:1005200090011124F901E859FF4FE68195E09E9F63
:10053000F0011124E059FF4FE381E13878F0E058F1
:100540009E9FF0011124E059FF4FE3819E9FF0012F
:100550001124E059FF4F4181528110C0EE2381F0F8
:100560009E9FF0011124E059FF4FE38196E0E99F3F
:10057000F0011124EE55FF4F42815381411117C004
:10058000E901C859DF4F9F81911111C0EE8195E0BB
:10059000E99FF0011124E059FF4F218132813D8311
:1005A0002C836C817D810E94D90181E08F83DF9152
:1005B000CF9108959BE0899FF0011124EE55FC4FE7
:1005C0008083728361834383108617828FEF8483D5
:1005D0008CE6828708952BE0829FC0011124FC01E4
:1005E000EE55FC4F6287089589B7816089BF81E02D
:1005F00082BF83B7816083BF7894089580E090E0E4
:100600003FEF2BE0289FF001299FF00D1124EE55BC
:10061000FC4F4481431708F43481289FF001299F3F
:10062000F00D1124EE55FC4F158216820196843090
:10063000910541F780E090E036E022E0389FF0013C
:10064000399FF00D1124EE55FF4F14822183108243
:1006500013821282158201968038910579F70895E8
:10066000CF93DF931F92CDB7DEB7282F30E09BE00A
:10067000899FD0011124AE55BC4F15968C911597CA
:100680008983E98196E09E9FF0011124EE55FF4F8A
:1006900013821282E9819E9FF0011124EE55FF4FD3
:1006A0001482E9819E9FF0011124EE55FF4F82E0F4
:1006B00081838981882309F443C08FEF14968C933A
:1006C0001497E9819E9FF0011124EE55FF4F85811B
:1006D0008823A9F0E9819E9FF0011124EE55FF4F78
:1006E000E5819E9FF0011124EE55FF4F818181111C
:1006F00003C019961C9203C083E019968C938BE07B
:10070000829FF001839FF00D1124EE55FC4F10865F
:1007100017821682A98186E0A89FD0011124AE55C8
:10072000BF4F15968C91858383810180F281E02DE6
:10073000811103C080818F7002C08081807F80839F
:100740000F90DF91CF910895DF92EF92FF920F9378
:100750001F93CF93DF93C82FD0E00BE0809FF00171
:100760001124EE55FC4F9381992329F043E052E088
:1007700071E060E004C047E056E075E064E09BE0B3
:100780009C9FF0019D9FF00D1124EE55FC4F91852B
:100790009130D9F100F1923009F451C0933009F051
:1007A00069C0E180F280D701DC9021E030E089016E
:1007B000072E01C0000F0A94EAF7902F90959D2113
:1007C0009C930180F281E02D9081042E01C0220FC4
:1007D0000A94EAF74DC0E180F280D701DC9021E075
:1007E00030E08901052E01C0000F0A94EAF7902F2E
:1007F00090959D219C930180F281E02D9081062EA1
:1008000001C0220F0A94EAF733C0E180F280D701D9
:10081000DC9021E030E08901042E01C0000F0A9431
:10082000EAF7902F90959D219C930180F281E02D15
:100830009081072E01C0220F0A94EAF719C0E180C7
:10084000F280D701DC9021E030E08901062E01C062
:10085000000F0A94EAF7902F90959D219C930180B8
:10086000F281E02D9081052E01C0220F0A94EAF753
:10087000292B20839BE09C9FF0019D9FF00D11246C
:10088000EE55FC4FA58196E09A9FD0011124AE55FC
:10089000BF4F11962C91211108C09185933011F40E
:1008A000118615C091859F5F11C0A5819A9FD001C7
:1008B0001124AE55BF4F11969C91913041F4918512
:1008C000911102C093E002C09185915091879BE005
:1008D0009C9FF0019D9FF00D1124EE55FC4F078168
:1008E0001085A58196E0A99FD0011124AE55BF4F78
:1008F00012962D913C9113972C5F3F4F02171307CF
:1009000019F50180F281E02D908121E030E0D901DC
:1009100001C0AA0F7A95EAF7890102C0000F111FE2
:100920006A95E2F7A02BB90101C0660F5A95EAF764
:100930006A2B01C0220F4A95EAF7262B209529231E
:1009400020830E94300305C087819085019690879F
:1009500087838BE08C9FF0018D9FF00D1124EE5565
:10096000FC4F94818285891718F484818150848397
:10097000DF91CF911F910F91FF90EF90DF9008953D
:100980001F920F920FB60F921124FF920F931F9395
:100990002F933F934F935F936F937F938F939F9387
:1009A000AF93BF93CF93DF93EF93FF93C0E0D0E07B
:1009B0001BE006E085E0F82E1C9FF0011D9FF00D66
:1009C0001124EE55FC4F9681848198132CC08581AB
:1009D000882301F1E5810E9FF0011124EE55FF4FB0
:1009E000E481EE23A1F0E13848F0E058FE9EF001EA
:1009F0001124E059FF4F8181928107C00E9FF001C1
:100A00001124EE55FF4F82819381892B19F48C2F8D
:100A10000E94A4031C9FF0011D9FF00D1124EE55B0
:100A2000FC4F168203C086818F5F86832196C43077
:100A3000D10511F680916E00882319F080E00E94A4
:100A40008C02FF91EF91DF91CF91BF91AF919F9178
:100A50008F917F916F915F914F913F912F911F9156
:100A60000F91FF900F900FBE0F901F901895EF926F
:100A70000F93CF93DF9300D0CDB7DEB799E7E1E0D6
:100A8000F0E0E91217C035E09E2F3E9FD0013F9F56
:100A9000B00D1124A059BF4F5C91521305C0211114
:100AA000A5C090E030E0A3C03196EA30F10561F7CF
:100AB00030E017C036E09E2FE038F10579F03E9F18
:100AC000D0013F9FB00D1124AE55BF4F5C913196C0
:100AD0005213F1CF21118DC090E08BC030E0E0388F
:100AE00009F420E091E09A8356E09A8197FD36C0A0
:100AF000EA8196E05E9FF0011124EE55FF4F0280DF
:100B0000F381E02DEF2B31F5EA819E9FF001112456
:100B1000EE55FF4F0083EA819E9FF0011124EE55B0
:100B2000FF4F1582EA819E9FF0011124EE55FF4F81
:100B30004183EA819E9FF0011124EE55FF4F73839C
:100B40006283EA81230F9E9FF0011124EE55FF4F2F
:100B5000248304C09A819F5F9A83C7CF282F30E0F7
:100B60009BE0899FF0011124EE55FC4F858189831C
:100B700089818823D9F086E0E9818E9FF0011124D4
:100B8000EE55FF4F9581E981992341F08E9FF00149
:100B90001124EE55FF4F95819983EECF8A8196E01F
:100BA000E99FF0011124EE55FF4F18C0AA8186E09D
:100BB000A89FD0011124AE55BF4F11968C91811181
:100BC00002C0118602C083E081878A819BE0929FE8
:100BD000F001939FF00D1124EE55FC4F85830F908B
:100BE0000F90DF91CF910F91EF90089530E8292F6A
:0C0BF00079CF292F30E076CFF894FFCFAA
:00000001FF
